{
  "contractName": "NIGHTMARE_FACTORY_TEST",
  "abi": [
    {
      "inputs": [
        {
          "internalType": "string",
          "name": "_name",
          "type": "string"
        },
        {
          "internalType": "string",
          "name": "_symbol",
          "type": "string"
        },
        {
          "internalType": "string",
          "name": "_initBaseURI",
          "type": "string"
        }
      ],
      "stateMutability": "nonpayable",
      "type": "constructor"
    },
    {
      "anonymous": false,
      "inputs": [
        {
          "indexed": true,
          "internalType": "address",
          "name": "owner",
          "type": "address"
        },
        {
          "indexed": true,
          "internalType": "address",
          "name": "approved",
          "type": "address"
        },
        {
          "indexed": true,
          "internalType": "uint256",
          "name": "tokenId",
          "type": "uint256"
        }
      ],
      "name": "Approval",
      "type": "event"
    },
    {
      "anonymous": false,
      "inputs": [
        {
          "indexed": true,
          "internalType": "address",
          "name": "owner",
          "type": "address"
        },
        {
          "indexed": true,
          "internalType": "address",
          "name": "operator",
          "type": "address"
        },
        {
          "indexed": false,
          "internalType": "bool",
          "name": "approved",
          "type": "bool"
        }
      ],
      "name": "ApprovalForAll",
      "type": "event"
    },
    {
      "anonymous": false,
      "inputs": [
        {
          "indexed": true,
          "internalType": "address",
          "name": "previousOwner",
          "type": "address"
        },
        {
          "indexed": true,
          "internalType": "address",
          "name": "newOwner",
          "type": "address"
        }
      ],
      "name": "OwnershipTransferred",
      "type": "event"
    },
    {
      "anonymous": false,
      "inputs": [
        {
          "indexed": true,
          "internalType": "address",
          "name": "from",
          "type": "address"
        },
        {
          "indexed": true,
          "internalType": "address",
          "name": "to",
          "type": "address"
        },
        {
          "indexed": true,
          "internalType": "uint256",
          "name": "tokenId",
          "type": "uint256"
        }
      ],
      "name": "Transfer",
      "type": "event"
    },
    {
      "inputs": [
        {
          "internalType": "address",
          "name": "to",
          "type": "address"
        },
        {
          "internalType": "uint256",
          "name": "tokenId",
          "type": "uint256"
        }
      ],
      "name": "approve",
      "outputs": [],
      "stateMutability": "nonpayable",
      "type": "function"
    },
    {
      "inputs": [
        {
          "internalType": "address",
          "name": "owner",
          "type": "address"
        }
      ],
      "name": "balanceOf",
      "outputs": [
        {
          "internalType": "uint256",
          "name": "",
          "type": "uint256"
        }
      ],
      "stateMutability": "view",
      "type": "function"
    },
    {
      "inputs": [],
      "name": "baseExtension",
      "outputs": [
        {
          "internalType": "string",
          "name": "",
          "type": "string"
        }
      ],
      "stateMutability": "view",
      "type": "function"
    },
    {
      "inputs": [],
      "name": "baseURI",
      "outputs": [
        {
          "internalType": "string",
          "name": "",
          "type": "string"
        }
      ],
      "stateMutability": "view",
      "type": "function"
    },
    {
      "inputs": [],
      "name": "cost",
      "outputs": [
        {
          "internalType": "uint256",
          "name": "",
          "type": "uint256"
        }
      ],
      "stateMutability": "view",
      "type": "function"
    },
    {
      "inputs": [
        {
          "internalType": "uint256",
          "name": "tokenId",
          "type": "uint256"
        }
      ],
      "name": "getApproved",
      "outputs": [
        {
          "internalType": "address",
          "name": "",
          "type": "address"
        }
      ],
      "stateMutability": "view",
      "type": "function"
    },
    {
      "inputs": [
        {
          "internalType": "address",
          "name": "owner",
          "type": "address"
        },
        {
          "internalType": "address",
          "name": "operator",
          "type": "address"
        }
      ],
      "name": "isApprovedForAll",
      "outputs": [
        {
          "internalType": "bool",
          "name": "",
          "type": "bool"
        }
      ],
      "stateMutability": "view",
      "type": "function"
    },
    {
      "inputs": [],
      "name": "maxMintAmount",
      "outputs": [
        {
          "internalType": "uint256",
          "name": "",
          "type": "uint256"
        }
      ],
      "stateMutability": "view",
      "type": "function"
    },
    {
      "inputs": [],
      "name": "maxSupply",
      "outputs": [
        {
          "internalType": "uint256",
          "name": "",
          "type": "uint256"
        }
      ],
      "stateMutability": "view",
      "type": "function"
    },
    {
      "inputs": [],
      "name": "name",
      "outputs": [
        {
          "internalType": "string",
          "name": "",
          "type": "string"
        }
      ],
      "stateMutability": "view",
      "type": "function"
    },
    {
      "inputs": [],
      "name": "owner",
      "outputs": [
        {
          "internalType": "address",
          "name": "",
          "type": "address"
        }
      ],
      "stateMutability": "view",
      "type": "function"
    },
    {
      "inputs": [
        {
          "internalType": "uint256",
          "name": "tokenId",
          "type": "uint256"
        }
      ],
      "name": "ownerOf",
      "outputs": [
        {
          "internalType": "address",
          "name": "",
          "type": "address"
        }
      ],
      "stateMutability": "view",
      "type": "function"
    },
    {
      "inputs": [],
      "name": "paused",
      "outputs": [
        {
          "internalType": "bool",
          "name": "",
          "type": "bool"
        }
      ],
      "stateMutability": "view",
      "type": "function"
    },
    {
      "inputs": [],
      "name": "renounceOwnership",
      "outputs": [],
      "stateMutability": "nonpayable",
      "type": "function"
    },
    {
      "inputs": [
        {
          "internalType": "address",
          "name": "from",
          "type": "address"
        },
        {
          "internalType": "address",
          "name": "to",
          "type": "address"
        },
        {
          "internalType": "uint256",
          "name": "tokenId",
          "type": "uint256"
        }
      ],
      "name": "safeTransferFrom",
      "outputs": [],
      "stateMutability": "nonpayable",
      "type": "function"
    },
    {
      "inputs": [
        {
          "internalType": "address",
          "name": "from",
          "type": "address"
        },
        {
          "internalType": "address",
          "name": "to",
          "type": "address"
        },
        {
          "internalType": "uint256",
          "name": "tokenId",
          "type": "uint256"
        },
        {
          "internalType": "bytes",
          "name": "_data",
          "type": "bytes"
        }
      ],
      "name": "safeTransferFrom",
      "outputs": [],
      "stateMutability": "nonpayable",
      "type": "function"
    },
    {
      "inputs": [
        {
          "internalType": "address",
          "name": "operator",
          "type": "address"
        },
        {
          "internalType": "bool",
          "name": "approved",
          "type": "bool"
        }
      ],
      "name": "setApprovalForAll",
      "outputs": [],
      "stateMutability": "nonpayable",
      "type": "function"
    },
    {
      "inputs": [
        {
          "internalType": "bytes4",
          "name": "interfaceId",
          "type": "bytes4"
        }
      ],
      "name": "supportsInterface",
      "outputs": [
        {
          "internalType": "bool",
          "name": "",
          "type": "bool"
        }
      ],
      "stateMutability": "view",
      "type": "function"
    },
    {
      "inputs": [],
      "name": "symbol",
      "outputs": [
        {
          "internalType": "string",
          "name": "",
          "type": "string"
        }
      ],
      "stateMutability": "view",
      "type": "function"
    },
    {
      "inputs": [
        {
          "internalType": "uint256",
          "name": "index",
          "type": "uint256"
        }
      ],
      "name": "tokenByIndex",
      "outputs": [
        {
          "internalType": "uint256",
          "name": "",
          "type": "uint256"
        }
      ],
      "stateMutability": "view",
      "type": "function"
    },
    {
      "inputs": [
        {
          "internalType": "address",
          "name": "owner",
          "type": "address"
        },
        {
          "internalType": "uint256",
          "name": "index",
          "type": "uint256"
        }
      ],
      "name": "tokenOfOwnerByIndex",
      "outputs": [
        {
          "internalType": "uint256",
          "name": "",
          "type": "uint256"
        }
      ],
      "stateMutability": "view",
      "type": "function"
    },
    {
      "inputs": [],
      "name": "totalSupply",
      "outputs": [
        {
          "internalType": "uint256",
          "name": "",
          "type": "uint256"
        }
      ],
      "stateMutability": "view",
      "type": "function"
    },
    {
      "inputs": [
        {
          "internalType": "address",
          "name": "from",
          "type": "address"
        },
        {
          "internalType": "address",
          "name": "to",
          "type": "address"
        },
        {
          "internalType": "uint256",
          "name": "tokenId",
          "type": "uint256"
        }
      ],
      "name": "transferFrom",
      "outputs": [],
      "stateMutability": "nonpayable",
      "type": "function"
    },
    {
      "inputs": [
        {
          "internalType": "address",
          "name": "newOwner",
          "type": "address"
        }
      ],
      "name": "transferOwnership",
      "outputs": [],
      "stateMutability": "nonpayable",
      "type": "function"
    },
    {
      "inputs": [],
      "name": "unused",
      "outputs": [
        {
          "internalType": "string",
          "name": "",
          "type": "string"
        }
      ],
      "stateMutability": "view",
      "type": "function"
    },
    {
      "inputs": [
        {
          "internalType": "address",
          "name": "",
          "type": "address"
        }
      ],
      "name": "whitelisted",
      "outputs": [
        {
          "internalType": "bool",
          "name": "",
          "type": "bool"
        }
      ],
      "stateMutability": "view",
      "type": "function"
    },
    {
      "inputs": [
        {
          "internalType": "address",
          "name": "_to",
          "type": "address"
        },
        {
          "internalType": "uint256",
          "name": "_mintAmount",
          "type": "uint256"
        }
      ],
      "name": "mint",
      "outputs": [],
      "stateMutability": "payable",
      "type": "function"
    },
    {
      "inputs": [
        {
          "internalType": "address",
          "name": "_owner",
          "type": "address"
        }
      ],
      "name": "walletOfOwner",
      "outputs": [
        {
          "internalType": "uint256[]",
          "name": "",
          "type": "uint256[]"
        }
      ],
      "stateMutability": "view",
      "type": "function"
    },
    {
      "inputs": [
        {
          "internalType": "uint256",
          "name": "tokenId",
          "type": "uint256"
        }
      ],
      "name": "tokenURI",
      "outputs": [
        {
          "internalType": "string",
          "name": "",
          "type": "string"
        }
      ],
      "stateMutability": "view",
      "type": "function"
    },
    {
      "inputs": [
        {
          "internalType": "uint256",
          "name": "_newCost",
          "type": "uint256"
        }
      ],
      "name": "setCost",
      "outputs": [],
      "stateMutability": "nonpayable",
      "type": "function"
    },
    {
      "inputs": [
        {
          "internalType": "uint256",
          "name": "_newmaxMintAmount",
          "type": "uint256"
        }
      ],
      "name": "setmaxMintAmount",
      "outputs": [],
      "stateMutability": "nonpayable",
      "type": "function"
    },
    {
      "inputs": [
        {
          "internalType": "string",
          "name": "_newBaseURI",
          "type": "string"
        }
      ],
      "name": "setBaseURI",
      "outputs": [],
      "stateMutability": "nonpayable",
      "type": "function"
    },
    {
      "inputs": [
        {
          "internalType": "string",
          "name": "_newBaseExtension",
          "type": "string"
        }
      ],
      "name": "setBaseExtension",
      "outputs": [],
      "stateMutability": "nonpayable",
      "type": "function"
    },
    {
      "inputs": [
        {
          "internalType": "bool",
          "name": "_state",
          "type": "bool"
        }
      ],
      "name": "pause",
      "outputs": [],
      "stateMutability": "nonpayable",
      "type": "function"
    },
    {
      "inputs": [
        {
          "internalType": "address",
          "name": "_user",
          "type": "address"
        }
      ],
      "name": "whitelistUser",
      "outputs": [],
      "stateMutability": "nonpayable",
      "type": "function"
    },
    {
      "inputs": [
        {
          "internalType": "address",
          "name": "_user",
          "type": "address"
        }
      ],
      "name": "removeWhitelistUser",
      "outputs": [],
      "stateMutability": "nonpayable",
      "type": "function"
    },
    {
      "inputs": [],
      "name": "withdraw",
      "outputs": [],
      "stateMutability": "payable",
      "type": "function"
    }
  ],
  "bytecode": "0x60c06040526005608081905264173539b7b760d91b60a09081526200002891600d919062000910565b5066470de4df820000600e556103e8600f5560146010556011805460ff191690553480156200005657600080fd5b506040516200307d3803806200307d833981016040819052620000799162000a8c565b8251839083906200009290600090602085019062000910565b508051620000a890600190602084019062000910565b505050620000c5620000bf620000e660201b60201c565b620000ea565b620000d0816200013c565b620000dd336014620001b5565b50505062000c97565b3390565b600a80546001600160a01b038381166001600160a01b0319831681179093556040519116919082907f8be0079c531659141344cd1fd0a4f28419497f9722a3daafe3b4186f6b6457e090600090a35050565b600a546001600160a01b031633146200019c5760405162461bcd60e51b815260206004820181905260248201527f4f776e61626c653a2063616c6c6572206973206e6f7420746865206f776e657260448201526064015b60405180910390fd5b8051620001b190600c90602084019062000910565b5050565b6000620001c160085490565b60115490915060ff1615620001d557600080fd5b60008211620001e357600080fd5b601054821115620001f357600080fd5b600f5462000202838362000b33565b11156200020e57600080fd5b600a546001600160a01b031633146200025b573360009081526012602052604090205460ff1615156001146200025b5781600e546200024e919062000b4e565b3410156200025b57600080fd5b60015b82811162000292576200027d8462000277838562000b33565b62000298565b80620002898162000b70565b9150506200025e565b50505050565b620001b1828260405180602001604052806000815250620002ba60201b60201c565b620002c6838362000332565b620002d5600084848462000488565b6200032d5760405162461bcd60e51b815260206004820152603260248201526000805160206200305d83398151915260448201527131b2b4bb32b91034b6b83632b6b2b73a32b960711b606482015260840162000193565b505050565b6001600160a01b0382166200038a5760405162461bcd60e51b815260206004820181905260248201527f4552433732313a206d696e7420746f20746865207a65726f2061646472657373604482015260640162000193565b6000818152600260205260409020546001600160a01b031615620003f15760405162461bcd60e51b815260206004820152601c60248201527f4552433732313a20746f6b656e20616c7265616479206d696e74656400000000604482015260640162000193565b620003ff60008383620005e4565b6001600160a01b03821660009081526003602052604081208054600192906200042a90849062000b33565b909155505060008181526002602052604080822080546001600160a01b0319166001600160a01b03861690811790915590518392907fddf252ad1be2c89b69c2b068fc378daa952ba7f163c4a11628f55a4df523b3ef908290a45050565b6000620004a9846001600160a01b0316620006c060201b620011ae1760201c565b15620005d857604051630a85bd0160e11b81526001600160a01b0385169063150b7a0290620004e390339089908890889060040162000b8c565b6020604051808303816000875af192505050801562000521575060408051601f3d908101601f191682019092526200051e9181019062000be2565b60015b620005bd573d80801562000552576040519150601f19603f3d011682016040523d82523d6000602084013e62000557565b606091505b508051600003620005b55760405162461bcd60e51b815260206004820152603260248201526000805160206200305d83398151915260448201527131b2b4bb32b91034b6b83632b6b2b73a32b960711b606482015260840162000193565b805181602001fd5b6001600160e01b031916630a85bd0160e11b149050620005dc565b5060015b949350505050565b620005fc8383836200032d60201b6200095f1760201c565b6001600160a01b0383166200065a576200065481600880546000838152600960205260408120829055600182018355919091527ff3f7a9fe364faab93b216da50a3214154f22a0a2b415b23a84c8169e8b636ee30155565b62000680565b816001600160a01b0316836001600160a01b0316146200068057620006808382620006cf565b6001600160a01b0382166200069a576200032d816200077c565b826001600160a01b0316826001600160a01b0316146200032d576200032d828262000836565b6001600160a01b03163b151590565b60006001620006e9846200088760201b62000eb51760201c565b620006f5919062000c15565b60008381526007602052604090205490915080821462000749576001600160a01b03841660009081526006602090815260408083208584528252808320548484528184208190558352600790915290208190555b5060009182526007602090815260408084208490556001600160a01b039094168352600681528383209183525290812055565b600854600090620007909060019062000c15565b60008381526009602052604081205460088054939450909284908110620007bb57620007bb62000c2f565b906000526020600020015490508060088381548110620007df57620007df62000c2f565b60009182526020808320909101929092558281526009909152604080822084905585825281205560088054806200081a576200081a62000c45565b6001900381819060005260206000200160009055905550505050565b60006200084e836200088760201b62000eb51760201c565b6001600160a01b039093166000908152600660209081526040808320868452825280832085905593825260079052919091209190915550565b60006001600160a01b038216620008f45760405162461bcd60e51b815260206004820152602a60248201527f4552433732313a2062616c616e636520717565727920666f7220746865207a65604482015269726f206164647265737360b01b606482015260840162000193565b506001600160a01b031660009081526003602052604090205490565b8280546200091e9062000c5b565b90600052602060002090601f0160209004810192826200094257600085556200098d565b82601f106200095d57805160ff19168380011785556200098d565b828001600101855582156200098d579182015b828111156200098d57825182559160200191906001019062000970565b506200099b9291506200099f565b5090565b5b808211156200099b5760008155600101620009a0565b634e487b7160e01b600052604160045260246000fd5b60005b83811015620009e9578181015183820152602001620009cf565b83811115620002925750506000910152565b600082601f83011262000a0d57600080fd5b81516001600160401b038082111562000a2a5762000a2a620009b6565b604051601f8301601f19908116603f0116810190828211818310171562000a555762000a55620009b6565b8160405283815286602085880101111562000a6f57600080fd5b62000a82846020830160208901620009cc565b9695505050505050565b60008060006060848603121562000aa257600080fd5b83516001600160401b038082111562000aba57600080fd5b62000ac887838801620009fb565b9450602086015191508082111562000adf57600080fd5b62000aed87838801620009fb565b9350604086015191508082111562000b0457600080fd5b5062000b1386828701620009fb565b9150509250925092565b634e487b7160e01b600052601160045260246000fd5b6000821982111562000b495762000b4962000b1d565b500190565b600081600019048311821515161562000b6b5762000b6b62000b1d565b500290565b60006001820162000b855762000b8562000b1d565b5060010190565b600060018060a01b03808716835280861660208401525083604083015260806060830152825180608084015262000bcb8160a0850160208701620009cc565b601f01601f19169190910160a00195945050505050565b60006020828403121562000bf557600080fd5b81516001600160e01b03198116811462000c0e57600080fd5b9392505050565b60008282101562000c2a5762000c2a62000b1d565b500390565b634e487b7160e01b600052603260045260246000fd5b634e487b7160e01b600052603160045260246000fd5b600181811c9082168062000c7057607f821691505b60208210810362000c9157634e487b7160e01b600052602260045260246000fd5b50919050565b6123b68062000ca76000396000f3fe60806040526004361061021a5760003560e01c80634f6ccce71161012357806395d89b41116100ab578063d5abeb011161006f578063d5abeb01146105e8578063d936547e146105fe578063da3ef23f1461062e578063e985e9c51461064e578063f2fde38b1461069757600080fd5b806395d89b411461055e578063a22cb46514610573578063b88d4fde14610593578063c6682862146105b3578063c87b56dd146105c857600080fd5b80636c0360eb116100f25780636c0360eb146104d657806370a08231146104eb578063715018a61461050b5780637f00c7a6146105205780638da5cb5b1461054057600080fd5b80634f6ccce71461045c57806355f804b31461047c5780635c975abb1461049c5780636352211e146104b657600080fd5b80632a4fcb1d116101a657806340c10f191161017557806340c10f19146103bc57806342842e0e146103cf578063438b6300146103ef57806344a0d68a1461041c5780634a4c560d1461043c57600080fd5b80632a4fcb1d1461035f5780632f745c591461037457806330cc7ae0146103945780633ccfd60b146103b457600080fd5b8063095ea7b3116101ed578063095ea7b3146102d057806313faede6146102f057806318160ddd14610314578063239c70ae1461032957806323b872dd1461033f57600080fd5b806301ffc9a71461021f57806302329a291461025457806306fdde0314610276578063081812fc14610298575b600080fd5b34801561022b57600080fd5b5061023f61023a366004611d0f565b6106b7565b60405190151581526020015b60405180910390f35b34801561026057600080fd5b5061027461026f366004611d41565b6106e2565b005b34801561028257600080fd5b5061028b610728565b60405161024b9190611db4565b3480156102a457600080fd5b506102b86102b3366004611dc7565b6107ba565b6040516001600160a01b03909116815260200161024b565b3480156102dc57600080fd5b506102746102eb366004611df7565b61084f565b3480156102fc57600080fd5b50610306600e5481565b60405190815260200161024b565b34801561032057600080fd5b50600854610306565b34801561033557600080fd5b5061030660105481565b34801561034b57600080fd5b5061027461035a366004611e21565b610964565b34801561036b57600080fd5b5061028b610995565b34801561038057600080fd5b5061030661038f366004611df7565b610a23565b3480156103a057600080fd5b506102746103af366004611e5d565b610ab9565b610274610b04565b6102746103ca366004611df7565b610b54565b3480156103db57600080fd5b506102746103ea366004611e21565b610c23565b3480156103fb57600080fd5b5061040f61040a366004611e5d565b610c3e565b60405161024b9190611e78565b34801561042857600080fd5b50610274610437366004611dc7565b610ce0565b34801561044857600080fd5b50610274610457366004611e5d565b610d0f565b34801561046857600080fd5b50610306610477366004611dc7565b610d5d565b34801561048857600080fd5b50610274610497366004611f48565b610df0565b3480156104a857600080fd5b5060115461023f9060ff1681565b3480156104c257600080fd5b506102b86104d1366004611dc7565b610e31565b3480156104e257600080fd5b5061028b610ea8565b3480156104f757600080fd5b50610306610506366004611e5d565b610eb5565b34801561051757600080fd5b50610274610f3c565b34801561052c57600080fd5b5061027461053b366004611dc7565b610f70565b34801561054c57600080fd5b50600a546001600160a01b03166102b8565b34801561056a57600080fd5b5061028b610f9f565b34801561057f57600080fd5b5061027461058e366004611f91565b610fae565b34801561059f57600080fd5b506102746105ae366004611fc4565b610fb9565b3480156105bf57600080fd5b5061028b610feb565b3480156105d457600080fd5b5061028b6105e3366004611dc7565b610ff8565b3480156105f457600080fd5b50610306600f5481565b34801561060a57600080fd5b5061023f610619366004611e5d565b60126020526000908152604090205460ff1681565b34801561063a57600080fd5b50610274610649366004611f48565b6110d6565b34801561065a57600080fd5b5061023f610669366004612040565b6001600160a01b03918216600090815260056020908152604080832093909416825291909152205460ff1690565b3480156106a357600080fd5b506102746106b2366004611e5d565b611113565b60006001600160e01b0319821663780e9d6360e01b14806106dc57506106dc826111bd565b92915050565b600a546001600160a01b031633146107155760405162461bcd60e51b815260040161070c9061206a565b60405180910390fd5b6011805460ff1916911515919091179055565b6060600080546107379061209f565b80601f01602080910402602001604051908101604052809291908181526020018280546107639061209f565b80156107b05780601f10610785576101008083540402835291602001916107b0565b820191906000526020600020905b81548152906001019060200180831161079357829003601f168201915b5050505050905090565b6000818152600260205260408120546001600160a01b03166108335760405162461bcd60e51b815260206004820152602c60248201527f4552433732313a20617070726f76656420717565727920666f72206e6f6e657860448201526b34b9ba32b73a103a37b5b2b760a11b606482015260840161070c565b506000908152600460205260409020546001600160a01b031690565b600061085a82610e31565b9050806001600160a01b0316836001600160a01b0316036108c75760405162461bcd60e51b815260206004820152602160248201527f4552433732313a20617070726f76616c20746f2063757272656e74206f776e656044820152603960f91b606482015260840161070c565b336001600160a01b03821614806108e357506108e38133610669565b6109555760405162461bcd60e51b815260206004820152603860248201527f4552433732313a20617070726f76652063616c6c6572206973206e6f74206f7760448201527f6e6572206e6f7220617070726f76656420666f7220616c6c0000000000000000606482015260840161070c565b61095f838361120d565b505050565b61096e338261127b565b61098a5760405162461bcd60e51b815260040161070c906120d9565b61095f838383611372565b600b80546109a29061209f565b80601f01602080910402602001604051908101604052809291908181526020018280546109ce9061209f565b8015610a1b5780601f106109f057610100808354040283529160200191610a1b565b820191906000526020600020905b8154815290600101906020018083116109fe57829003601f168201915b505050505081565b6000610a2e83610eb5565b8210610a905760405162461bcd60e51b815260206004820152602b60248201527f455243373231456e756d657261626c653a206f776e657220696e646578206f7560448201526a74206f6620626f756e647360a81b606482015260840161070c565b506001600160a01b03919091166000908152600660209081526040808320938352929052205490565b600a546001600160a01b03163314610ae35760405162461bcd60e51b815260040161070c9061206a565b6001600160a01b03166000908152601260205260409020805460ff19169055565b600a546001600160a01b03163314610b2e5760405162461bcd60e51b815260040161070c9061206a565b60405133904780156108fc02916000818181858888f19350505050610b5257600080fd5b565b6000610b5f60085490565b60115490915060ff1615610b7257600080fd5b60008211610b7f57600080fd5b601054821115610b8e57600080fd5b600f54610b9b8383612140565b1115610ba657600080fd5b600a546001600160a01b03163314610bee573360009081526012602052604090205460ff161515600114610bee5781600e54610be29190612158565b341015610bee57600080fd5b60015b828111610c1d57610c0b84610c068385612140565b611519565b80610c1581612177565b915050610bf1565b50505050565b61095f83838360405180602001604052806000815250610fb9565b60606000610c4b83610eb5565b905060008167ffffffffffffffff811115610c6857610c68611ebc565b604051908082528060200260200182016040528015610c91578160200160208202803683370190505b50905060005b82811015610cd857610ca98582610a23565b828281518110610cbb57610cbb612190565b602090810291909101015280610cd081612177565b915050610c97565b509392505050565b600a546001600160a01b03163314610d0a5760405162461bcd60e51b815260040161070c9061206a565b600e55565b600a546001600160a01b03163314610d395760405162461bcd60e51b815260040161070c9061206a565b6001600160a01b03166000908152601260205260409020805460ff19166001179055565b6000610d6860085490565b8210610dcb5760405162461bcd60e51b815260206004820152602c60248201527f455243373231456e756d657261626c653a20676c6f62616c20696e646578206f60448201526b7574206f6620626f756e647360a01b606482015260840161070c565b60088281548110610dde57610dde612190565b90600052602060002001549050919050565b600a546001600160a01b03163314610e1a5760405162461bcd60e51b815260040161070c9061206a565b8051610e2d90600c906020840190611c60565b5050565b6000818152600260205260408120546001600160a01b0316806106dc5760405162461bcd60e51b815260206004820152602960248201527f4552433732313a206f776e657220717565727920666f72206e6f6e657869737460448201526832b73a103a37b5b2b760b91b606482015260840161070c565b600c80546109a29061209f565b60006001600160a01b038216610f205760405162461bcd60e51b815260206004820152602a60248201527f4552433732313a2062616c616e636520717565727920666f7220746865207a65604482015269726f206164647265737360b01b606482015260840161070c565b506001600160a01b031660009081526003602052604090205490565b600a546001600160a01b03163314610f665760405162461bcd60e51b815260040161070c9061206a565b610b526000611533565b600a546001600160a01b03163314610f9a5760405162461bcd60e51b815260040161070c9061206a565b601055565b6060600180546107379061209f565b610e2d338383611585565b610fc3338361127b565b610fdf5760405162461bcd60e51b815260040161070c906120d9565b610c1d84848484611653565b600d80546109a29061209f565b6000818152600260205260409020546060906001600160a01b03166110775760405162461bcd60e51b815260206004820152602f60248201527f4552433732314d657461646174613a2055524920717565727920666f72206e6f60448201526e3732bc34b9ba32b73a103a37b5b2b760891b606482015260840161070c565b6000611081611686565b905060008151116110a157604051806020016040528060008152506110cf565b806110ab84611695565b600d6040516020016110bf939291906121a6565b6040516020818303038152906040525b9392505050565b600a546001600160a01b031633146111005760405162461bcd60e51b815260040161070c9061206a565b8051610e2d90600d906020840190611c60565b600a546001600160a01b0316331461113d5760405162461bcd60e51b815260040161070c9061206a565b6001600160a01b0381166111a25760405162461bcd60e51b815260206004820152602660248201527f4f776e61626c653a206e6577206f776e657220697320746865207a65726f206160448201526564647265737360d01b606482015260840161070c565b6111ab81611533565b50565b6001600160a01b03163b151590565b60006001600160e01b031982166380ac58cd60e01b14806111ee57506001600160e01b03198216635b5e139f60e01b145b806106dc57506301ffc9a760e01b6001600160e01b03198316146106dc565b600081815260046020526040902080546001600160a01b0319166001600160a01b038416908117909155819061124282610e31565b6001600160a01b03167f8c5be1e5ebec7d5bd14f71427d1e84f3dd0314c0f7b2291e5b200ac8c7c3b92560405160405180910390a45050565b6000818152600260205260408120546001600160a01b03166112f45760405162461bcd60e51b815260206004820152602c60248201527f4552433732313a206f70657261746f7220717565727920666f72206e6f6e657860448201526b34b9ba32b73a103a37b5b2b760a11b606482015260840161070c565b60006112ff83610e31565b9050806001600160a01b0316846001600160a01b0316148061133a5750836001600160a01b031661132f846107ba565b6001600160a01b0316145b8061136a57506001600160a01b0380821660009081526005602090815260408083209388168352929052205460ff165b949350505050565b826001600160a01b031661138582610e31565b6001600160a01b0316146113e95760405162461bcd60e51b815260206004820152602560248201527f4552433732313a207472616e736665722066726f6d20696e636f72726563742060448201526437bbb732b960d91b606482015260840161070c565b6001600160a01b03821661144b5760405162461bcd60e51b8152602060048201526024808201527f4552433732313a207472616e7366657220746f20746865207a65726f206164646044820152637265737360e01b606482015260840161070c565b611456838383611796565b61146160008261120d565b6001600160a01b038316600090815260036020526040812080546001929061148a908490612269565b90915550506001600160a01b03821660009081526003602052604081208054600192906114b8908490612140565b909155505060008181526002602052604080822080546001600160a01b0319166001600160a01b0386811691821790925591518493918716917fddf252ad1be2c89b69c2b068fc378daa952ba7f163c4a11628f55a4df523b3ef91a4505050565b610e2d82826040518060200160405280600081525061184e565b600a80546001600160a01b038381166001600160a01b0319831681179093556040519116919082907f8be0079c531659141344cd1fd0a4f28419497f9722a3daafe3b4186f6b6457e090600090a35050565b816001600160a01b0316836001600160a01b0316036115e65760405162461bcd60e51b815260206004820152601960248201527f4552433732313a20617070726f766520746f2063616c6c657200000000000000604482015260640161070c565b6001600160a01b03838116600081815260056020908152604080832094871680845294825291829020805460ff191686151590811790915591519182527f17307eab39ab6107e8899845ad3d59bd9653f200f220920489ca2b5937696c31910160405180910390a3505050565b61165e848484611372565b61166a84848484611881565b610c1d5760405162461bcd60e51b815260040161070c90612280565b6060600c80546107379061209f565b6060816000036116bc5750506040805180820190915260018152600360fc1b602082015290565b8160005b81156116e657806116d081612177565b91506116df9050600a836122e8565b91506116c0565b60008167ffffffffffffffff81111561170157611701611ebc565b6040519080825280601f01601f19166020018201604052801561172b576020820181803683370190505b5090505b841561136a57611740600183612269565b915061174d600a866122fc565b611758906030612140565b60f81b81838151811061176d5761176d612190565b60200101906001600160f81b031916908160001a90535061178f600a866122e8565b945061172f565b6001600160a01b0383166117f1576117ec81600880546000838152600960205260408120829055600182018355919091527ff3f7a9fe364faab93b216da50a3214154f22a0a2b415b23a84c8169e8b636ee30155565b611814565b816001600160a01b0316836001600160a01b031614611814576118148382611982565b6001600160a01b03821661182b5761095f81611a1f565b826001600160a01b0316826001600160a01b03161461095f5761095f8282611ace565b6118588383611b12565b6118656000848484611881565b61095f5760405162461bcd60e51b815260040161070c90612280565b60006001600160a01b0384163b1561197757604051630a85bd0160e11b81526001600160a01b0385169063150b7a02906118c5903390899088908890600401612310565b6020604051808303816000875af1925050508015611900575060408051601f3d908101601f191682019092526118fd9181019061234d565b60015b61195d573d80801561192e576040519150601f19603f3d011682016040523d82523d6000602084013e611933565b606091505b5080516000036119555760405162461bcd60e51b815260040161070c90612280565b805181602001fd5b6001600160e01b031916630a85bd0160e11b14905061136a565b506001949350505050565b6000600161198f84610eb5565b6119999190612269565b6000838152600760205260409020549091508082146119ec576001600160a01b03841660009081526006602090815260408083208584528252808320548484528184208190558352600790915290208190555b5060009182526007602090815260408084208490556001600160a01b039094168352600681528383209183525290812055565b600854600090611a3190600190612269565b60008381526009602052604081205460088054939450909284908110611a5957611a59612190565b906000526020600020015490508060088381548110611a7a57611a7a612190565b6000918252602080832090910192909255828152600990915260408082208490558582528120556008805480611ab257611ab261236a565b6001900381819060005260206000200160009055905550505050565b6000611ad983610eb5565b6001600160a01b039093166000908152600660209081526040808320868452825280832085905593825260079052919091209190915550565b6001600160a01b038216611b685760405162461bcd60e51b815260206004820181905260248201527f4552433732313a206d696e7420746f20746865207a65726f2061646472657373604482015260640161070c565b6000818152600260205260409020546001600160a01b031615611bcd5760405162461bcd60e51b815260206004820152601c60248201527f4552433732313a20746f6b656e20616c7265616479206d696e74656400000000604482015260640161070c565b611bd960008383611796565b6001600160a01b0382166000908152600360205260408120805460019290611c02908490612140565b909155505060008181526002602052604080822080546001600160a01b0319166001600160a01b03861690811790915590518392907fddf252ad1be2c89b69c2b068fc378daa952ba7f163c4a11628f55a4df523b3ef908290a45050565b828054611c6c9061209f565b90600052602060002090601f016020900481019282611c8e5760008555611cd4565b82601f10611ca757805160ff1916838001178555611cd4565b82800160010185558215611cd4579182015b82811115611cd4578251825591602001919060010190611cb9565b50611ce0929150611ce4565b5090565b5b80821115611ce05760008155600101611ce5565b6001600160e01b0319811681146111ab57600080fd5b600060208284031215611d2157600080fd5b81356110cf81611cf9565b80358015158114611d3c57600080fd5b919050565b600060208284031215611d5357600080fd5b6110cf82611d2c565b60005b83811015611d77578181015183820152602001611d5f565b83811115610c1d5750506000910152565b60008151808452611da0816020860160208601611d5c565b601f01601f19169290920160200192915050565b6020815260006110cf6020830184611d88565b600060208284031215611dd957600080fd5b5035919050565b80356001600160a01b0381168114611d3c57600080fd5b60008060408385031215611e0a57600080fd5b611e1383611de0565b946020939093013593505050565b600080600060608486031215611e3657600080fd5b611e3f84611de0565b9250611e4d60208501611de0565b9150604084013590509250925092565b600060208284031215611e6f57600080fd5b6110cf82611de0565b6020808252825182820181905260009190848201906040850190845b81811015611eb057835183529284019291840191600101611e94565b50909695505050505050565b634e487b7160e01b600052604160045260246000fd5b600067ffffffffffffffff80841115611eed57611eed611ebc565b604051601f8501601f19908116603f01168101908282118183101715611f1557611f15611ebc565b81604052809350858152868686011115611f2e57600080fd5b858560208301376000602087830101525050509392505050565b600060208284031215611f5a57600080fd5b813567ffffffffffffffff811115611f7157600080fd5b8201601f81018413611f8257600080fd5b61136a84823560208401611ed2565b60008060408385031215611fa457600080fd5b611fad83611de0565b9150611fbb60208401611d2c565b90509250929050565b60008060008060808587031215611fda57600080fd5b611fe385611de0565b9350611ff160208601611de0565b925060408501359150606085013567ffffffffffffffff81111561201457600080fd5b8501601f8101871361202557600080fd5b61203487823560208401611ed2565b91505092959194509250565b6000806040838503121561205357600080fd5b61205c83611de0565b9150611fbb60208401611de0565b6020808252818101527f4f776e61626c653a2063616c6c6572206973206e6f7420746865206f776e6572604082015260600190565b600181811c908216806120b357607f821691505b6020821081036120d357634e487b7160e01b600052602260045260246000fd5b50919050565b60208082526031908201527f4552433732313a207472616e736665722063616c6c6572206973206e6f74206f6040820152701ddb995c881b9bdc88185c1c1c9bdd9959607a1b606082015260800190565b634e487b7160e01b600052601160045260246000fd5b600082198211156121535761215361212a565b500190565b60008160001904831182151516156121725761217261212a565b500290565b6000600182016121895761218961212a565b5060010190565b634e487b7160e01b600052603260045260246000fd5b6000845160206121b98285838a01611d5c565b8551918401916121cc8184848a01611d5c565b8554920191600090600181811c90808316806121e957607f831692505b858310810361220657634e487b7160e01b85526022600452602485fd5b80801561221a576001811461222b57612258565b60ff19851688528388019550612258565b60008b81526020902060005b858110156122505781548a820152908401908801612237565b505083880195505b50939b9a5050505050505050505050565b60008282101561227b5761227b61212a565b500390565b60208082526032908201527f4552433732313a207472616e7366657220746f206e6f6e20455243373231526560408201527131b2b4bb32b91034b6b83632b6b2b73a32b960711b606082015260800190565b634e487b7160e01b600052601260045260246000fd5b6000826122f7576122f76122d2565b500490565b60008261230b5761230b6122d2565b500690565b6001600160a01b038581168252841660208201526040810183905260806060820181905260009061234390830184611d88565b9695505050505050565b60006020828403121561235f57600080fd5b81516110cf81611cf9565b634e487b7160e01b600052603160045260246000fdfea26469706673582212203b84c8b9c8a12a63c3e0b476ab6b2067f875956ad64937958048439fc5af967a64736f6c634300080d00334552433732313a207472616e7366657220746f206e6f6e204552433732315265",
  "immutableReferences": {},
  "source": "// SPDX-License-Identifier: MIT\r\n\r\npragma solidity ^0.8.1;\r\n\r\nimport \"@openzeppelin/contracts/token/ERC721/extensions/ERC721Enumerable.sol\";\r\nimport \"@openzeppelin/contracts/access/Ownable.sol\";\r\n\r\ncontract NIGHTMARE_FACTORY_TEST is ERC721Enumerable, Ownable {\r\n  using Strings for uint256;\r\n\r\n  string public unused;\r\n  string public baseURI;\r\n  string public baseExtension = \".json\";\r\n  uint256 public cost = .02 ether;\r\n  uint256 public maxSupply = 1000;\r\n  uint256 public maxMintAmount = 20;\r\n  bool public paused = false;\r\n  mapping(address => bool) public whitelisted;\r\n\r\n  constructor(\r\n    string memory _name,\r\n    string memory _symbol,\r\n    string memory _initBaseURI\r\n    \r\n  ) ERC721(_name, _symbol) {\r\n    setBaseURI(_initBaseURI);\r\n    mint(msg.sender, 20);\r\n  }\r\n\r\n  // internal\r\n  function _baseURI() internal view virtual override returns (string memory) {\r\n    return baseURI;\r\n  }\r\n\r\n  // public\r\n  function mint(address _to, uint256 _mintAmount) public payable {\r\n    uint256 supply = totalSupply();\r\n    require(!paused);\r\n    require(_mintAmount > 0);\r\n    require(_mintAmount <= maxMintAmount);\r\n    require(supply + _mintAmount <= maxSupply);\r\n\r\n    if (msg.sender != owner()) {\r\n        if(whitelisted[msg.sender] != true) {\r\n          require(msg.value >= cost * _mintAmount);\r\n        }\r\n    }\r\n\r\n    for (uint256 i = 1; i <= _mintAmount; i++) {\r\n      _safeMint(_to, supply + i);\r\n    }\r\n  }\r\n\r\n  function walletOfOwner(address _owner)\r\n    public\r\n    view\r\n    returns (uint256[] memory)\r\n  {\r\n    uint256 ownerTokenCount = balanceOf(_owner);\r\n    uint256[] memory tokenIds = new uint256[](ownerTokenCount);\r\n    for (uint256 i; i < ownerTokenCount; i++) {\r\n      tokenIds[i] = tokenOfOwnerByIndex(_owner, i);\r\n    }\r\n    return tokenIds;\r\n  }\r\n\r\n  function tokenURI(uint256 tokenId)\r\n    public\r\n    view\r\n    virtual\r\n    override\r\n    returns (string memory)\r\n  {\r\n    require(\r\n      _exists(tokenId),\r\n      \"ERC721Metadata: URI query for nonexistent token\"\r\n    );\r\n\r\n    string memory currentBaseURI = _baseURI();\r\n    return bytes(currentBaseURI).length > 0\r\n        ? string(abi.encodePacked(currentBaseURI, tokenId.toString(), baseExtension))\r\n        : \"\";\r\n  }\r\n\r\n  //only owner\r\n  function setCost(uint256 _newCost) public onlyOwner {\r\n    cost = _newCost;\r\n  }\r\n\r\n  function setmaxMintAmount(uint256 _newmaxMintAmount) public onlyOwner {\r\n    maxMintAmount = _newmaxMintAmount;\r\n  }\r\n\r\n  function setBaseURI(string memory _newBaseURI) public onlyOwner {\r\n    baseURI = _newBaseURI;\r\n  }\r\n\r\n  function setBaseExtension(string memory _newBaseExtension) public onlyOwner {\r\n    baseExtension = _newBaseExtension;\r\n  }\r\n\r\n  function pause(bool _state) public onlyOwner {\r\n    paused = _state;\r\n  }\r\n \r\n function whitelistUser(address _user) public onlyOwner {\r\n    whitelisted[_user] = true;\r\n  }\r\n \r\n  function removeWhitelistUser(address _user) public onlyOwner {\r\n    whitelisted[_user] = false;\r\n  }\r\n\r\n  function withdraw() public payable onlyOwner {\r\n    require(payable(msg.sender).send(address(this).balance));\r\n  }\r\n}\r\n",
  "sourcePath": "C:\\Users\\carlo\\NFT1beforefinal\\frontend_base_dapp\\contracts\\SmartContract.sol",
  "compiler": {
    "name": "solc",
    "version": "0.8.13+commit.abaa5c0e.Emscripten.clang"
  },
  "schemaVersion": "3.4.6",
  "updatedAt": "2022-04-10T04:33:18.253Z",
  "devdoc": {
    "kind": "dev",
    "methods": {
      "approve(address,uint256)": {
        "details": "See {IERC721-approve}."
      },
      "balanceOf(address)": {
        "details": "See {IERC721-balanceOf}."
      },
      "getApproved(uint256)": {
        "details": "See {IERC721-getApproved}."
      },
      "isApprovedForAll(address,address)": {
        "details": "See {IERC721-isApprovedForAll}."
      },
      "name()": {
        "details": "See {IERC721Metadata-name}."
      },
      "owner()": {
        "details": "Returns the address of the current owner."
      },
      "ownerOf(uint256)": {
        "details": "See {IERC721-ownerOf}."
      },
      "renounceOwnership()": {
        "details": "Leaves the contract without owner. It will not be possible to call `onlyOwner` functions anymore. Can only be called by the current owner. NOTE: Renouncing ownership will leave the contract without an owner, thereby removing any functionality that is only available to the owner."
      },
      "safeTransferFrom(address,address,uint256)": {
        "details": "See {IERC721-safeTransferFrom}."
      },
      "safeTransferFrom(address,address,uint256,bytes)": {
        "details": "See {IERC721-safeTransferFrom}."
      },
      "setApprovalForAll(address,bool)": {
        "details": "See {IERC721-setApprovalForAll}."
      },
      "supportsInterface(bytes4)": {
        "details": "See {IERC165-supportsInterface}."
      },
      "symbol()": {
        "details": "See {IERC721Metadata-symbol}."
      },
      "tokenByIndex(uint256)": {
        "details": "See {IERC721Enumerable-tokenByIndex}."
      },
      "tokenOfOwnerByIndex(address,uint256)": {
        "details": "See {IERC721Enumerable-tokenOfOwnerByIndex}."
      },
      "tokenURI(uint256)": {
        "details": "See {IERC721Metadata-tokenURI}."
      },
      "totalSupply()": {
        "details": "See {IERC721Enumerable-totalSupply}."
      },
      "transferFrom(address,address,uint256)": {
        "details": "See {IERC721-transferFrom}."
      },
      "transferOwnership(address)": {
        "details": "Transfers ownership of the contract to a new account (`newOwner`). Can only be called by the current owner."
      }
    },
    "version": 1
  },
  "userdoc": {
    "kind": "user",
    "methods": {},
    "version": 1
  }
}